:1000000012C049C048C047C046C045C044C043C0F4
:1000100042C041C040C03FC03EC03DC03CC03BC0EC
:100020003AC039C038C011241FBECFEDCDBF03D0B8
:060030002BC0F894FFCF85
:100036001ED090E0859917C081E0911180E0911162
:1000460004C092B3906492BB03C092B39F7B92BBF1
:100056002FEF34E39CE0215030409040E1F700C0A0
:0E0066000000982FE7CF82B38F7B82BBE3CFE1
:1000740081B3806481BB81B38F7D81BB82B3806295
:0400840082BB08959E
:0E008800EC0107D005D0CE0105D0CE0104D08A
:02009600B4CFE5
:020098000895C9
:02009A000895C7
:02009C000895C5
:02009E00C9DFB8
:00000001FF
